{
  "contractName": "SimpleStorage",
  "abi": [
    {
      "constant": true,
      "inputs": [],
      "name": "storedData",
      "outputs": [
        {
          "name": "",
          "type": "uint256"
        }
      ],
      "payable": false,
      "stateMutability": "view",
      "type": "function"
    },
    {
      "constant": false,
      "inputs": [
        {
          "name": "x",
          "type": "uint256"
        }
      ],
      "name": "set",
      "outputs": [],
      "payable": false,
      "stateMutability": "nonpayable",
      "type": "function"
    },
    {
      "constant": true,
      "inputs": [],
      "name": "get",
      "outputs": [
        {
          "name": "retVal",
          "type": "uint256"
        }
      ],
      "payable": false,
      "stateMutability": "view",
      "type": "function"
    },
    {
      "inputs": [
        {
          "name": "initVal",
          "type": "uint256"
        }
      ],
      "payable": false,
      "stateMutability": "nonpayable",
      "type": "constructor"
    }
  ],
  "bytecode": "0x6060604052341561000f57600080fd5b60405160208061014e833981016040528080519060200190919050506002810160008190555050610109806100456000396000f3006060604052600436106053576000357c0100000000000000000000000000000000000000000000000000000000900463ffffffff1680632a1afcd914605857806360fe47b114607e5780636d4ce63c14609e575b600080fd5b3415606257600080fd5b606860c4565b6040518082815260200191505060405180910390f35b3415608857600080fd5b609c600480803590602001909190505060ca565b005b341560a857600080fd5b60ae60d4565b6040518082815260200191505060405180910390f35b60005481565b8060008190555050565b600080549050905600a165627a7a723058204f74b3d663fcc83b12d2367013f3fffc10f28e6422a52bffd3d93f3e8a1c8f6e0029",
  "source": "pragma solidity ^0.4.17;\n\ncontract SimpleStorage {\n  uint public storedData;\n\n  function SimpleStorage(uint initVal) public {\n    storedData = initVal + 2;\n  }\n\n  function set(uint x) public {\n    storedData = x;\n  }\n\n  function get() constant public returns (uint retVal) {\n    return storedData;\n  }\n}",
  "sourcePath": "/Users/aahmed/Projects/quorum-quick-start/contracts/SimpleStorage.sol",
  "compiler": {
    "name": "solc",
    "version": "0.4.18+commit.9cf6e910.Emscripten.clang"
  },
  "schemaVersion": "1.0.1",
  "updatedAt": "2017-12-27T20:26:07.696Z"
}